{
	"contracts/2_SpecialNfts.sol": {
		"SpecialNfts": {
			"abi": [
				{
					"inputs": [
						{
							"internalType": "contract IERC721Enumerable",
							"name": "_NFTAddress",
							"type": "address"
						}
					],
					"stateMutability": "nonpayable",
					"type": "constructor"
				},
				{
					"inputs": [],
					"name": "myNFTContract",
					"outputs": [
						{
							"internalType": "contract IERC721Enumerable",
							"name": "",
							"type": "address"
						}
					],
					"stateMutability": "view",
					"type": "function"
				},
				{
					"inputs": [
						{
							"internalType": "address",
							"name": "_owner",
							"type": "address"
						}
					],
					"name": "specialNftsCount",
					"outputs": [
						{
							"internalType": "uint256",
							"name": "",
							"type": "uint256"
						}
					],
					"stateMutability": "view",
					"type": "function"
				}
			],
			"devdoc": {
				"kind": "dev",
				"methods": {},
				"version": 1
			},
			"evm": {
				"assembly": "    /* \"contracts/2_SpecialNfts.sol\":142:1315  contract SpecialNfts {\r... */\n  mstore(0x40, 0x80)\n    /* \"contracts/2_SpecialNfts.sol\":217:306  constructor(IERC721Enumerable _NFTAddress) {\r... */\n  callvalue\n  dup1\n  iszero\n  tag_1\n  jumpi\n  0x00\n  dup1\n  revert\ntag_1:\n  pop\n  mload(0x40)\n  sub(codesize, bytecodeSize)\n  dup1\n  bytecodeSize\n  dup4\n  codecopy\n  dup2\n  dup2\n  add\n  0x40\n  mstore\n  dup2\n  add\n  swap1\n  tag_2\n  swap2\n  swap1\n  tag_3\n  jump\t// in\ntag_2:\n    /* \"contracts/2_SpecialNfts.sol\":287:298  _NFTAddress */\n  dup1\n    /* \"contracts/2_SpecialNfts.sol\":271:284  myNFTContract */\n  0x00\n  dup1\n    /* \"contracts/2_SpecialNfts.sol\":271:298  myNFTContract = _NFTAddress */\n  0x0100\n  exp\n  dup2\n  sload\n  dup2\n  0xffffffffffffffffffffffffffffffffffffffff\n  mul\n  not\n  and\n  swap1\n  dup4\n  0xffffffffffffffffffffffffffffffffffffffff\n  and\n  mul\n  or\n  swap1\n  sstore\n  pop\n    /* \"contracts/2_SpecialNfts.sol\":217:306  constructor(IERC721Enumerable _NFTAddress) {\r... */\n  pop\n    /* \"contracts/2_SpecialNfts.sol\":142:1315  contract SpecialNfts {\r... */\n  jump(tag_6)\n    /* \"#utility.yul\":7:200   */\ntag_8:\n    /* \"#utility.yul\":89:94   */\n  0x00\n    /* \"#utility.yul\":120:126   */\n  dup2\n    /* \"#utility.yul\":114:127   */\n  mload\n    /* \"#utility.yul\":105:127   */\n  swap1\n  pop\n    /* \"#utility.yul\":136:194   */\n  tag_10\n    /* \"#utility.yul\":188:193   */\n  dup2\n    /* \"#utility.yul\":136:194   */\n  tag_11\n  jump\t// in\ntag_10:\n    /* \"#utility.yul\":7:200   */\n  swap3\n  swap2\n  pop\n  pop\n  jump\t// out\n    /* \"#utility.yul\":206:607   */\ntag_3:\n    /* \"#utility.yul\":301:307   */\n  0x00\n    /* \"#utility.yul\":350:352   */\n  0x20\n    /* \"#utility.yul\":338:347   */\n  dup3\n    /* \"#utility.yul\":329:336   */\n  dup5\n    /* \"#utility.yul\":325:348   */\n  sub\n    /* \"#utility.yul\":321:353   */\n  slt\n    /* \"#utility.yul\":318:437   */\n  iszero\n  tag_13\n  jumpi\n    /* \"#utility.yul\":356:435   */\n  tag_14\n  tag_15\n  jump\t// in\ntag_14:\n    /* \"#utility.yul\":318:437   */\ntag_13:\n    /* \"#utility.yul\":476:477   */\n  0x00\n    /* \"#utility.yul\":501:590   */\n  tag_16\n    /* \"#utility.yul\":582:589   */\n  dup5\n    /* \"#utility.yul\":573:579   */\n  dup3\n    /* \"#utility.yul\":562:571   */\n  dup6\n    /* \"#utility.yul\":558:580   */\n  add\n    /* \"#utility.yul\":501:590   */\n  tag_8\n  jump\t// in\ntag_16:\n    /* \"#utility.yul\":491:590   */\n  swap2\n  pop\n    /* \"#utility.yul\":447:600   */\n  pop\n    /* \"#utility.yul\":206:607   */\n  swap3\n  swap2\n  pop\n  pop\n  jump\t// out\n    /* \"#utility.yul\":694:790   */\ntag_19:\n    /* \"#utility.yul\":731:738   */\n  0x00\n    /* \"#utility.yul\":760:784   */\n  tag_21\n    /* \"#utility.yul\":778:783   */\n  dup3\n    /* \"#utility.yul\":760:784   */\n  tag_22\n  jump\t// in\ntag_21:\n    /* \"#utility.yul\":749:784   */\n  swap1\n  pop\n    /* \"#utility.yul\":694:790   */\n  swap2\n  swap1\n  pop\n  jump\t// out\n    /* \"#utility.yul\":796:917   */\ntag_23:\n    /* \"#utility.yul\":858:865   */\n  0x00\n    /* \"#utility.yul\":887:911   */\n  tag_25\n    /* \"#utility.yul\":905:910   */\n  dup3\n    /* \"#utility.yul\":887:911   */\n  tag_19\n  jump\t// in\ntag_25:\n    /* \"#utility.yul\":876:911   */\n  swap1\n  pop\n    /* \"#utility.yul\":796:917   */\n  swap2\n  swap1\n  pop\n  jump\t// out\n    /* \"#utility.yul\":923:1049   */\ntag_22:\n    /* \"#utility.yul\":960:967   */\n  0x00\n    /* \"#utility.yul\":1000:1042   */\n  0xffffffffffffffffffffffffffffffffffffffff\n    /* \"#utility.yul\":993:998   */\n  dup3\n    /* \"#utility.yul\":989:1043   */\n  and\n    /* \"#utility.yul\":978:1043   */\n  swap1\n  pop\n    /* \"#utility.yul\":923:1049   */\n  swap2\n  swap1\n  pop\n  jump\t// out\n    /* \"#utility.yul\":1178:1295   */\ntag_15:\n    /* \"#utility.yul\":1287:1288   */\n  0x00\n    /* \"#utility.yul\":1284:1285   */\n  dup1\n    /* \"#utility.yul\":1277:1289   */\n  revert\n    /* \"#utility.yul\":1301:1473   */\ntag_11:\n    /* \"#utility.yul\":1399:1448   */\n  tag_31\n    /* \"#utility.yul\":1442:1447   */\n  dup2\n    /* \"#utility.yul\":1399:1448   */\n  tag_23\n  jump\t// in\ntag_31:\n    /* \"#utility.yul\":1392:1397   */\n  dup2\n    /* \"#utility.yul\":1389:1449   */\n  eq\n    /* \"#utility.yul\":1379:1467   */\n  tag_32\n  jumpi\n    /* \"#utility.yul\":1463:1464   */\n  0x00\n    /* \"#utility.yul\":1460:1461   */\n  dup1\n    /* \"#utility.yul\":1453:1465   */\n  revert\n    /* \"#utility.yul\":1379:1467   */\ntag_32:\n    /* \"#utility.yul\":1301:1473   */\n  pop\n  jump\t// out\n    /* \"contracts/2_SpecialNfts.sol\":142:1315  contract SpecialNfts {\r... */\ntag_6:\n  dataSize(sub_0)\n  dup1\n  dataOffset(sub_0)\n  0x00\n  codecopy\n  0x00\n  return\nstop\n\nsub_0: assembly {\n        /* \"contracts/2_SpecialNfts.sol\":142:1315  contract SpecialNfts {\r... */\n      mstore(0x40, 0x80)\n      callvalue\n      dup1\n      iszero\n      tag_1\n      jumpi\n      0x00\n      dup1\n      revert\n    tag_1:\n      pop\n      jumpi(tag_2, lt(calldatasize, 0x04))\n      shr(0xe0, calldataload(0x00))\n      dup1\n      0x37c57593\n      eq\n      tag_3\n      jumpi\n      dup1\n      0xcaa093b7\n      eq\n      tag_4\n      jumpi\n    tag_2:\n      0x00\n      dup1\n      revert\n        /* \"contracts/2_SpecialNfts.sol\":314:756  function specialNftsCount(address _owner) external view returns (uint256) {\r... */\n    tag_3:\n      tag_5\n      0x04\n      dup1\n      calldatasize\n      sub\n      dup2\n      add\n      swap1\n      tag_6\n      swap2\n      swap1\n      tag_7\n      jump\t// in\n    tag_6:\n      tag_8\n      jump\t// in\n    tag_5:\n      mload(0x40)\n      tag_9\n      swap2\n      swap1\n      tag_10\n      jump\t// in\n    tag_9:\n      mload(0x40)\n      dup1\n      swap2\n      sub\n      swap1\n      return\n        /* \"contracts/2_SpecialNfts.sol\":170:208  IERC721Enumerable public myNFTContract */\n    tag_4:\n      tag_11\n      tag_12\n      jump\t// in\n    tag_11:\n      mload(0x40)\n      tag_13\n      swap2\n      swap1\n      tag_14\n      jump\t// in\n    tag_13:\n      mload(0x40)\n      dup1\n      swap2\n      sub\n      swap1\n      return\n        /* \"contracts/2_SpecialNfts.sol\":314:756  function specialNftsCount(address _owner) external view returns (uint256) {\r... */\n    tag_8:\n        /* \"contracts/2_SpecialNfts.sol\":379:386  uint256 */\n      0x00\n        /* \"contracts/2_SpecialNfts.sol\":399:416  uint256 NFTsCount */\n      dup1\n        /* \"contracts/2_SpecialNfts.sol\":419:432  myNFTContract */\n      0x00\n      dup1\n      sload\n      swap1\n      0x0100\n      exp\n      swap1\n      div\n      0xffffffffffffffffffffffffffffffffffffffff\n      and\n        /* \"contracts/2_SpecialNfts.sol\":419:442  myNFTContract.balanceOf */\n      0xffffffffffffffffffffffffffffffffffffffff\n      and\n      0x70a08231\n        /* \"contracts/2_SpecialNfts.sol\":443:449  _owner */\n      dup5\n        /* \"contracts/2_SpecialNfts.sol\":419:450  myNFTContract.balanceOf(_owner) */\n      mload(0x40)\n      dup3\n      0xffffffff\n      and\n      0xe0\n      shl\n      dup2\n      mstore\n      0x04\n      add\n      tag_16\n      swap2\n      swap1\n      tag_17\n      jump\t// in\n    tag_16:\n      0x20\n      mload(0x40)\n      dup1\n      dup4\n      sub\n      dup2\n      dup7\n      dup1\n      extcodesize\n      iszero\n      dup1\n      iszero\n      tag_18\n      jumpi\n      0x00\n      dup1\n      revert\n    tag_18:\n      pop\n      gas\n      staticcall\n      iszero\n      dup1\n      iszero\n      tag_20\n      jumpi\n      returndatasize\n      0x00\n      dup1\n      returndatacopy\n      revert(0x00, returndatasize)\n    tag_20:\n      pop\n      pop\n      pop\n      pop\n      mload(0x40)\n      returndatasize\n      not(0x1f)\n      0x1f\n      dup3\n      add\n      and\n      dup3\n      add\n      dup1\n      0x40\n      mstore\n      pop\n      dup2\n      add\n      swap1\n      tag_21\n      swap2\n      swap1\n      tag_22\n      jump\t// in\n    tag_21:\n        /* \"contracts/2_SpecialNfts.sol\":399:450  uint256 NFTsCount = myNFTContract.balanceOf(_owner) */\n      swap1\n      pop\n        /* \"contracts/2_SpecialNfts.sol\":461:485  uint256 specialNFTsCount */\n      0x00\n        /* \"contracts/2_SpecialNfts.sol\":501:510  uint256 i */\n      dup1\n        /* \"contracts/2_SpecialNfts.sol\":513:514  0 */\n      0x00\n        /* \"contracts/2_SpecialNfts.sol\":501:514  uint256 i = 0 */\n      swap1\n      pop\n        /* \"contracts/2_SpecialNfts.sol\":496:715  for (uint256 i = 0; i < NFTsCount; i++) {\r... */\n    tag_23:\n        /* \"contracts/2_SpecialNfts.sol\":520:529  NFTsCount */\n      dup3\n        /* \"contracts/2_SpecialNfts.sol\":516:517  i */\n      dup2\n        /* \"contracts/2_SpecialNfts.sol\":516:529  i < NFTsCount */\n      lt\n        /* \"contracts/2_SpecialNfts.sol\":496:715  for (uint256 i = 0; i < NFTsCount; i++) {\r... */\n      iszero\n      tag_24\n      jumpi\n        /* \"contracts/2_SpecialNfts.sol\":551:567  uint256 _tokenId */\n      0x00\n        /* \"contracts/2_SpecialNfts.sol\":570:583  myNFTContract */\n      dup1\n      0x00\n      swap1\n      sload\n      swap1\n      0x0100\n      exp\n      swap1\n      div\n      0xffffffffffffffffffffffffffffffffffffffff\n      and\n        /* \"contracts/2_SpecialNfts.sol\":570:603  myNFTContract.tokenOfOwnerByIndex */\n      0xffffffffffffffffffffffffffffffffffffffff\n      and\n      0x2f745c59\n        /* \"contracts/2_SpecialNfts.sol\":604:610  _owner */\n      dup8\n        /* \"contracts/2_SpecialNfts.sol\":612:613  i */\n      dup5\n        /* \"contracts/2_SpecialNfts.sol\":570:614  myNFTContract.tokenOfOwnerByIndex(_owner, i) */\n      mload(0x40)\n      dup4\n      0xffffffff\n      and\n      0xe0\n      shl\n      dup2\n      mstore\n      0x04\n      add\n      tag_26\n      swap3\n      swap2\n      swap1\n      tag_27\n      jump\t// in\n    tag_26:\n      0x20\n      mload(0x40)\n      dup1\n      dup4\n      sub\n      dup2\n      dup7\n      dup1\n      extcodesize\n      iszero\n      dup1\n      iszero\n      tag_28\n      jumpi\n      0x00\n      dup1\n      revert\n    tag_28:\n      pop\n      gas\n      staticcall\n      iszero\n      dup1\n      iszero\n      tag_30\n      jumpi\n      returndatasize\n      0x00\n      dup1\n      returndatacopy\n      revert(0x00, returndatasize)\n    tag_30:\n      pop\n      pop\n      pop\n      pop\n      mload(0x40)\n      returndatasize\n      not(0x1f)\n      0x1f\n      dup3\n      add\n      and\n      dup3\n      add\n      dup1\n      0x40\n      mstore\n      pop\n      dup2\n      add\n      swap1\n      tag_31\n      swap2\n      swap1\n      tag_22\n      jump\t// in\n    tag_31:\n        /* \"contracts/2_SpecialNfts.sol\":551:614  uint256 _tokenId = myNFTContract.tokenOfOwnerByIndex(_owner, i) */\n      swap1\n      pop\n        /* \"contracts/2_SpecialNfts.sol\":632:649  isPrime(_tokenId) */\n      tag_32\n        /* \"contracts/2_SpecialNfts.sol\":640:648  _tokenId */\n      dup2\n        /* \"contracts/2_SpecialNfts.sol\":632:639  isPrime */\n      tag_33\n        /* \"contracts/2_SpecialNfts.sol\":632:649  isPrime(_tokenId) */\n      jump\t// in\n    tag_32:\n        /* \"contracts/2_SpecialNfts.sol\":629:704  if(isPrime(_tokenId)) {\r... */\n      iszero\n      tag_34\n      jumpi\n        /* \"contracts/2_SpecialNfts.sol\":670:688  specialNFTsCount++ */\n      dup3\n      dup1\n      tag_35\n      swap1\n      tag_36\n      jump\t// in\n    tag_35:\n      swap4\n      pop\n      pop\n        /* \"contracts/2_SpecialNfts.sol\":629:704  if(isPrime(_tokenId)) {\r... */\n    tag_34:\n        /* \"contracts/2_SpecialNfts.sol\":536:715  {\r... */\n      pop\n        /* \"contracts/2_SpecialNfts.sol\":531:534  i++ */\n      dup1\n      dup1\n      tag_37\n      swap1\n      tag_36\n      jump\t// in\n    tag_37:\n      swap2\n      pop\n      pop\n        /* \"contracts/2_SpecialNfts.sol\":496:715  for (uint256 i = 0; i < NFTsCount; i++) {\r... */\n      jump(tag_23)\n    tag_24:\n      pop\n        /* \"contracts/2_SpecialNfts.sol\":732:748  specialNFTsCount */\n      dup1\n        /* \"contracts/2_SpecialNfts.sol\":725:748  return specialNFTsCount */\n      swap3\n      pop\n      pop\n      pop\n        /* \"contracts/2_SpecialNfts.sol\":314:756  function specialNftsCount(address _owner) external view returns (uint256) {\r... */\n      swap2\n      swap1\n      pop\n      jump\t// out\n        /* \"contracts/2_SpecialNfts.sol\":170:208  IERC721Enumerable public myNFTContract */\n    tag_12:\n      0x00\n      dup1\n      sload\n      swap1\n      0x0100\n      exp\n      swap1\n      div\n      0xffffffffffffffffffffffffffffffffffffffff\n      and\n      dup2\n      jump\t// out\n        /* \"contracts/2_SpecialNfts.sol\":764:992  function isPrime(uint256 _num) internal pure returns (bool) {\r... */\n    tag_33:\n        /* \"contracts/2_SpecialNfts.sol\":818:822  bool */\n      0x00\n        /* \"contracts/2_SpecialNfts.sol\":835:844  uint256 s */\n      dup1\n        /* \"contracts/2_SpecialNfts.sol\":847:857  sqrt(_num) */\n      tag_39\n        /* \"contracts/2_SpecialNfts.sol\":852:856  _num */\n      dup4\n        /* \"contracts/2_SpecialNfts.sol\":847:851  sqrt */\n      tag_40\n        /* \"contracts/2_SpecialNfts.sol\":847:857  sqrt(_num) */\n      jump\t// in\n    tag_39:\n        /* \"contracts/2_SpecialNfts.sol\":835:857  uint256 s = sqrt(_num) */\n      swap1\n      pop\n        /* \"contracts/2_SpecialNfts.sol\":872:881  uint256 i */\n      0x00\n        /* \"contracts/2_SpecialNfts.sol\":884:885  2 */\n      0x02\n        /* \"contracts/2_SpecialNfts.sol\":872:885  uint256 i = 2 */\n      swap1\n      pop\n        /* \"contracts/2_SpecialNfts.sol\":868:957  for(uint256 i = 2; i <= s; i++) {\r... */\n    tag_41:\n        /* \"contracts/2_SpecialNfts.sol\":892:893  s */\n      dup2\n        /* \"contracts/2_SpecialNfts.sol\":887:888  i */\n      dup2\n        /* \"contracts/2_SpecialNfts.sol\":887:893  i <= s */\n      gt\n        /* \"contracts/2_SpecialNfts.sol\":868:957  for(uint256 i = 2; i <= s; i++) {\r... */\n      tag_42\n      jumpi\n        /* \"contracts/2_SpecialNfts.sol\":930:931  0 */\n      0x00\n        /* \"contracts/2_SpecialNfts.sol\":925:926  i */\n      dup2\n        /* \"contracts/2_SpecialNfts.sol\":918:922  _num */\n      dup6\n        /* \"contracts/2_SpecialNfts.sol\":918:926  _num % i */\n      tag_44\n      swap2\n      swap1\n      tag_45\n      jump\t// in\n    tag_44:\n        /* \"contracts/2_SpecialNfts.sol\":918:931  _num % i == 0 */\n      eq\n        /* \"contracts/2_SpecialNfts.sol\":915:945  if(_num % i == 0) return false */\n      iszero\n      tag_46\n      jumpi\n        /* \"contracts/2_SpecialNfts.sol\":940:945  false */\n      0x00\n        /* \"contracts/2_SpecialNfts.sol\":933:945  return false */\n      swap3\n      pop\n      pop\n      pop\n      jump(tag_38)\n        /* \"contracts/2_SpecialNfts.sol\":915:945  if(_num % i == 0) return false */\n    tag_46:\n        /* \"contracts/2_SpecialNfts.sol\":895:898  i++ */\n      dup1\n      dup1\n      tag_47\n      swap1\n      tag_36\n      jump\t// in\n    tag_47:\n      swap2\n      pop\n      pop\n        /* \"contracts/2_SpecialNfts.sol\":868:957  for(uint256 i = 2; i <= s; i++) {\r... */\n      jump(tag_41)\n    tag_42:\n      pop\n        /* \"contracts/2_SpecialNfts.sol\":983:984  1 */\n      0x01\n        /* \"contracts/2_SpecialNfts.sol\":976:980  _num */\n      dup4\n        /* \"contracts/2_SpecialNfts.sol\":976:984  _num > 1 */\n      gt\n        /* \"contracts/2_SpecialNfts.sol\":969:984  return _num > 1 */\n      swap2\n      pop\n      pop\n        /* \"contracts/2_SpecialNfts.sol\":764:992  function isPrime(uint256 _num) internal pure returns (bool) {\r... */\n    tag_38:\n      swap2\n      swap1\n      pop\n      jump\t// out\n        /* \"contracts/2_SpecialNfts.sol\":1000:1312  function sqrt(uint256 y) internal pure returns (uint256 z) {\r... */\n    tag_40:\n        /* \"contracts/2_SpecialNfts.sol\":1048:1057  uint256 z */\n      0x00\n        /* \"contracts/2_SpecialNfts.sol\":1078:1079  3 */\n      0x03\n        /* \"contracts/2_SpecialNfts.sol\":1074:1075  y */\n      dup3\n        /* \"contracts/2_SpecialNfts.sol\":1074:1079  y > 3 */\n      gt\n        /* \"contracts/2_SpecialNfts.sol\":1070:1305  if (y > 3) {\r... */\n      iszero\n      tag_49\n      jumpi\n        /* \"contracts/2_SpecialNfts.sol\":1100:1101  y */\n      dup2\n        /* \"contracts/2_SpecialNfts.sol\":1096:1101  z = y */\n      swap1\n      pop\n        /* \"contracts/2_SpecialNfts.sol\":1116:1125  uint256 x */\n      0x00\n        /* \"contracts/2_SpecialNfts.sol\":1136:1137  1 */\n      0x01\n        /* \"contracts/2_SpecialNfts.sol\":1132:1133  2 */\n      0x02\n        /* \"contracts/2_SpecialNfts.sol\":1128:1129  y */\n      dup5\n        /* \"contracts/2_SpecialNfts.sol\":1128:1133  y / 2 */\n      tag_50\n      swap2\n      swap1\n      tag_51\n      jump\t// in\n    tag_50:\n        /* \"contracts/2_SpecialNfts.sol\":1128:1137  y / 2 + 1 */\n      tag_52\n      swap2\n      swap1\n      tag_53\n      jump\t// in\n    tag_52:\n        /* \"contracts/2_SpecialNfts.sol\":1116:1137  uint256 x = y / 2 + 1 */\n      swap1\n      pop\n        /* \"contracts/2_SpecialNfts.sol\":1152:1244  while (x < z) {\r... */\n    tag_54:\n        /* \"contracts/2_SpecialNfts.sol\":1163:1164  z */\n      dup2\n        /* \"contracts/2_SpecialNfts.sol\":1159:1160  x */\n      dup2\n        /* \"contracts/2_SpecialNfts.sol\":1159:1164  x < z */\n      lt\n        /* \"contracts/2_SpecialNfts.sol\":1152:1244  while (x < z) {\r... */\n      iszero\n      tag_55\n      jumpi\n        /* \"contracts/2_SpecialNfts.sol\":1189:1190  x */\n      dup1\n        /* \"contracts/2_SpecialNfts.sol\":1185:1190  z = x */\n      swap2\n      pop\n        /* \"contracts/2_SpecialNfts.sol\":1227:1228  2 */\n      0x02\n        /* \"contracts/2_SpecialNfts.sol\":1222:1223  x */\n      dup2\n        /* \"contracts/2_SpecialNfts.sol\":1218:1219  x */\n      dup3\n        /* \"contracts/2_SpecialNfts.sol\":1214:1215  y */\n      dup6\n        /* \"contracts/2_SpecialNfts.sol\":1214:1219  y / x */\n      tag_56\n      swap2\n      swap1\n      tag_51\n      jump\t// in\n    tag_56:\n        /* \"contracts/2_SpecialNfts.sol\":1214:1223  y / x + x */\n      tag_57\n      swap2\n      swap1\n      tag_53\n      jump\t// in\n    tag_57:\n        /* \"contracts/2_SpecialNfts.sol\":1213:1228  (y / x + x) / 2 */\n      tag_58\n      swap2\n      swap1\n      tag_51\n      jump\t// in\n    tag_58:\n        /* \"contracts/2_SpecialNfts.sol\":1209:1228  x = (y / x + x) / 2 */\n      swap1\n      pop\n        /* \"contracts/2_SpecialNfts.sol\":1152:1244  while (x < z) {\r... */\n      jump(tag_54)\n    tag_55:\n        /* \"contracts/2_SpecialNfts.sol\":1081:1255  {\r... */\n      pop\n        /* \"contracts/2_SpecialNfts.sol\":1070:1305  if (y > 3) {\r... */\n      jump(tag_59)\n    tag_49:\n        /* \"contracts/2_SpecialNfts.sol\":1270:1271  0 */\n      0x00\n        /* \"contracts/2_SpecialNfts.sol\":1265:1266  y */\n      dup3\n        /* \"contracts/2_SpecialNfts.sol\":1265:1271  y != 0 */\n      eq\n        /* \"contracts/2_SpecialNfts.sol\":1261:1305  if (y != 0) {\r... */\n      tag_60\n      jumpi\n        /* \"contracts/2_SpecialNfts.sol\":1292:1293  1 */\n      0x01\n        /* \"contracts/2_SpecialNfts.sol\":1288:1293  z = 1 */\n      swap1\n      pop\n        /* \"contracts/2_SpecialNfts.sol\":1261:1305  if (y != 0) {\r... */\n    tag_60:\n        /* \"contracts/2_SpecialNfts.sol\":1070:1305  if (y > 3) {\r... */\n    tag_59:\n        /* \"contracts/2_SpecialNfts.sol\":1000:1312  function sqrt(uint256 y) internal pure returns (uint256 z) {\r... */\n      swap2\n      swap1\n      pop\n      jump\t// out\n        /* \"#utility.yul\":7:146   */\n    tag_62:\n        /* \"#utility.yul\":53:58   */\n      0x00\n        /* \"#utility.yul\":91:97   */\n      dup2\n        /* \"#utility.yul\":78:98   */\n      calldataload\n        /* \"#utility.yul\":69:98   */\n      swap1\n      pop\n        /* \"#utility.yul\":107:140   */\n      tag_64\n        /* \"#utility.yul\":134:139   */\n      dup2\n        /* \"#utility.yul\":107:140   */\n      tag_65\n      jump\t// in\n    tag_64:\n        /* \"#utility.yul\":7:146   */\n      swap3\n      swap2\n      pop\n      pop\n      jump\t// out\n        /* \"#utility.yul\":152:295   */\n    tag_66:\n        /* \"#utility.yul\":209:214   */\n      0x00\n        /* \"#utility.yul\":240:246   */\n      dup2\n        /* \"#utility.yul\":234:247   */\n      mload\n        /* \"#utility.yul\":225:247   */\n      swap1\n      pop\n        /* \"#utility.yul\":256:289   */\n      tag_68\n        /* \"#utility.yul\":283:288   */\n      dup2\n        /* \"#utility.yul\":256:289   */\n      tag_69\n      jump\t// in\n    tag_68:\n        /* \"#utility.yul\":152:295   */\n      swap3\n      swap2\n      pop\n      pop\n      jump\t// out\n        /* \"#utility.yul\":301:630   */\n    tag_7:\n        /* \"#utility.yul\":360:366   */\n      0x00\n        /* \"#utility.yul\":409:411   */\n      0x20\n        /* \"#utility.yul\":397:406   */\n      dup3\n        /* \"#utility.yul\":388:395   */\n      dup5\n        /* \"#utility.yul\":384:407   */\n      sub\n        /* \"#utility.yul\":380:412   */\n      slt\n        /* \"#utility.yul\":377:496   */\n      iszero\n      tag_71\n      jumpi\n        /* \"#utility.yul\":415:494   */\n      tag_72\n      tag_73\n      jump\t// in\n    tag_72:\n        /* \"#utility.yul\":377:496   */\n    tag_71:\n        /* \"#utility.yul\":535:536   */\n      0x00\n        /* \"#utility.yul\":560:613   */\n      tag_74\n        /* \"#utility.yul\":605:612   */\n      dup5\n        /* \"#utility.yul\":596:602   */\n      dup3\n        /* \"#utility.yul\":585:594   */\n      dup6\n        /* \"#utility.yul\":581:603   */\n      add\n        /* \"#utility.yul\":560:613   */\n      tag_62\n      jump\t// in\n    tag_74:\n        /* \"#utility.yul\":550:613   */\n      swap2\n      pop\n        /* \"#utility.yul\":506:623   */\n      pop\n        /* \"#utility.yul\":301:630   */\n      swap3\n      swap2\n      pop\n      pop\n      jump\t// out\n        /* \"#utility.yul\":636:987   */\n    tag_22:\n        /* \"#utility.yul\":706:712   */\n      0x00\n        /* \"#utility.yul\":755:757   */\n      0x20\n        /* \"#utility.yul\":743:752   */\n      dup3\n        /* \"#utility.yul\":734:741   */\n      dup5\n        /* \"#utility.yul\":730:753   */\n      sub\n        /* \"#utility.yul\":726:758   */\n      slt\n        /* \"#utility.yul\":723:842   */\n      iszero\n      tag_76\n      jumpi\n        /* \"#utility.yul\":761:840   */\n      tag_77\n      tag_73\n      jump\t// in\n    tag_77:\n        /* \"#utility.yul\":723:842   */\n    tag_76:\n        /* \"#utility.yul\":881:882   */\n      0x00\n        /* \"#utility.yul\":906:970   */\n      tag_78\n        /* \"#utility.yul\":962:969   */\n      dup5\n        /* \"#utility.yul\":953:959   */\n      dup3\n        /* \"#utility.yul\":942:951   */\n      dup6\n        /* \"#utility.yul\":938:960   */\n      add\n        /* \"#utility.yul\":906:970   */\n      tag_66\n      jump\t// in\n    tag_78:\n        /* \"#utility.yul\":896:970   */\n      swap2\n      pop\n        /* \"#utility.yul\":852:980   */\n      pop\n        /* \"#utility.yul\":636:987   */\n      swap3\n      swap2\n      pop\n      pop\n      jump\t// out\n        /* \"#utility.yul\":993:1111   */\n    tag_79:\n        /* \"#utility.yul\":1080:1104   */\n      tag_81\n        /* \"#utility.yul\":1098:1103   */\n      dup2\n        /* \"#utility.yul\":1080:1104   */\n      tag_82\n      jump\t// in\n    tag_81:\n        /* \"#utility.yul\":1075:1078   */\n      dup3\n        /* \"#utility.yul\":1068:1105   */\n      mstore\n        /* \"#utility.yul\":993:1111   */\n      pop\n      pop\n      jump\t// out\n        /* \"#utility.yul\":1117:1298   */\n    tag_83:\n        /* \"#utility.yul\":1229:1291   */\n      tag_85\n        /* \"#utility.yul\":1285:1290   */\n      dup2\n        /* \"#utility.yul\":1229:1291   */\n      tag_86\n      jump\t// in\n    tag_85:\n        /* \"#utility.yul\":1224:1227   */\n      dup3\n        /* \"#utility.yul\":1217:1292   */\n      mstore\n        /* \"#utility.yul\":1117:1298   */\n      pop\n      pop\n      jump\t// out\n        /* \"#utility.yul\":1304:1422   */\n    tag_87:\n        /* \"#utility.yul\":1391:1415   */\n      tag_89\n        /* \"#utility.yul\":1409:1414   */\n      dup2\n        /* \"#utility.yul\":1391:1415   */\n      tag_90\n      jump\t// in\n    tag_89:\n        /* \"#utility.yul\":1386:1389   */\n      dup3\n        /* \"#utility.yul\":1379:1416   */\n      mstore\n        /* \"#utility.yul\":1304:1422   */\n      pop\n      pop\n      jump\t// out\n        /* \"#utility.yul\":1428:1650   */\n    tag_17:\n        /* \"#utility.yul\":1521:1525   */\n      0x00\n        /* \"#utility.yul\":1559:1561   */\n      0x20\n        /* \"#utility.yul\":1548:1557   */\n      dup3\n        /* \"#utility.yul\":1544:1562   */\n      add\n        /* \"#utility.yul\":1536:1562   */\n      swap1\n      pop\n        /* \"#utility.yul\":1572:1643   */\n      tag_92\n        /* \"#utility.yul\":1640:1641   */\n      0x00\n        /* \"#utility.yul\":1629:1638   */\n      dup4\n        /* \"#utility.yul\":1625:1642   */\n      add\n        /* \"#utility.yul\":1616:1622   */\n      dup5\n        /* \"#utility.yul\":1572:1643   */\n      tag_79\n      jump\t// in\n    tag_92:\n        /* \"#utility.yul\":1428:1650   */\n      swap3\n      swap2\n      pop\n      pop\n      jump\t// out\n        /* \"#utility.yul\":1656:1988   */\n    tag_27:\n        /* \"#utility.yul\":1777:1781   */\n      0x00\n        /* \"#utility.yul\":1815:1817   */\n      0x40\n        /* \"#utility.yul\":1804:1813   */\n      dup3\n        /* \"#utility.yul\":1800:1818   */\n      add\n        /* \"#utility.yul\":1792:1818   */\n      swap1\n      pop\n        /* \"#utility.yul\":1828:1899   */\n      tag_94\n        /* \"#utility.yul\":1896:1897   */\n      0x00\n        /* \"#utility.yul\":1885:1894   */\n      dup4\n        /* \"#utility.yul\":1881:1898   */\n      add\n        /* \"#utility.yul\":1872:1878   */\n      dup6\n        /* \"#utility.yul\":1828:1899   */\n      tag_79\n      jump\t// in\n    tag_94:\n        /* \"#utility.yul\":1909:1981   */\n      tag_95\n        /* \"#utility.yul\":1977:1979   */\n      0x20\n        /* \"#utility.yul\":1966:1975   */\n      dup4\n        /* \"#utility.yul\":1962:1980   */\n      add\n        /* \"#utility.yul\":1953:1959   */\n      dup5\n        /* \"#utility.yul\":1909:1981   */\n      tag_87\n      jump\t// in\n    tag_95:\n        /* \"#utility.yul\":1656:1988   */\n      swap4\n      swap3\n      pop\n      pop\n      pop\n      jump\t// out\n        /* \"#utility.yul\":1994:2266   */\n    tag_14:\n        /* \"#utility.yul\":2112:2116   */\n      0x00\n        /* \"#utility.yul\":2150:2152   */\n      0x20\n        /* \"#utility.yul\":2139:2148   */\n      dup3\n        /* \"#utility.yul\":2135:2153   */\n      add\n        /* \"#utility.yul\":2127:2153   */\n      swap1\n      pop\n        /* \"#utility.yul\":2163:2259   */\n      tag_97\n        /* \"#utility.yul\":2256:2257   */\n      0x00\n        /* \"#utility.yul\":2245:2254   */\n      dup4\n        /* \"#utility.yul\":2241:2258   */\n      add\n        /* \"#utility.yul\":2232:2238   */\n      dup5\n        /* \"#utility.yul\":2163:2259   */\n      tag_83\n      jump\t// in\n    tag_97:\n        /* \"#utility.yul\":1994:2266   */\n      swap3\n      swap2\n      pop\n      pop\n      jump\t// out\n        /* \"#utility.yul\":2272:2494   */\n    tag_10:\n        /* \"#utility.yul\":2365:2369   */\n      0x00\n        /* \"#utility.yul\":2403:2405   */\n      0x20\n        /* \"#utility.yul\":2392:2401   */\n      dup3\n        /* \"#utility.yul\":2388:2406   */\n      add\n        /* \"#utility.yul\":2380:2406   */\n      swap1\n      pop\n        /* \"#utility.yul\":2416:2487   */\n      tag_99\n        /* \"#utility.yul\":2484:2485   */\n      0x00\n        /* \"#utility.yul\":2473:2482   */\n      dup4\n        /* \"#utility.yul\":2469:2486   */\n      add\n        /* \"#utility.yul\":2460:2466   */\n      dup5\n        /* \"#utility.yul\":2416:2487   */\n      tag_87\n      jump\t// in\n    tag_99:\n        /* \"#utility.yul\":2272:2494   */\n      swap3\n      swap2\n      pop\n      pop\n      jump\t// out\n        /* \"#utility.yul\":2581:2886   */\n    tag_53:\n        /* \"#utility.yul\":2621:2624   */\n      0x00\n        /* \"#utility.yul\":2640:2660   */\n      tag_103\n        /* \"#utility.yul\":2658:2659   */\n      dup3\n        /* \"#utility.yul\":2640:2660   */\n      tag_90\n      jump\t// in\n    tag_103:\n        /* \"#utility.yul\":2635:2660   */\n      swap2\n      pop\n        /* \"#utility.yul\":2674:2694   */\n      tag_104\n        /* \"#utility.yul\":2692:2693   */\n      dup4\n        /* \"#utility.yul\":2674:2694   */\n      tag_90\n      jump\t// in\n    tag_104:\n        /* \"#utility.yul\":2669:2694   */\n      swap3\n      pop\n        /* \"#utility.yul\":2828:2829   */\n      dup3\n        /* \"#utility.yul\":2760:2826   */\n      0xffffffffffffffffffffffffffffffffffffffffffffffffffffffffffffffff\n        /* \"#utility.yul\":2756:2830   */\n      sub\n        /* \"#utility.yul\":2753:2754   */\n      dup3\n        /* \"#utility.yul\":2750:2831   */\n      gt\n        /* \"#utility.yul\":2747:2854   */\n      iszero\n      tag_105\n      jumpi\n        /* \"#utility.yul\":2834:2852   */\n      tag_106\n      tag_107\n      jump\t// in\n    tag_106:\n        /* \"#utility.yul\":2747:2854   */\n    tag_105:\n        /* \"#utility.yul\":2878:2879   */\n      dup3\n        /* \"#utility.yul\":2875:2876   */\n      dup3\n        /* \"#utility.yul\":2871:2880   */\n      add\n        /* \"#utility.yul\":2864:2880   */\n      swap1\n      pop\n        /* \"#utility.yul\":2581:2886   */\n      swap3\n      swap2\n      pop\n      pop\n      jump\t// out\n        /* \"#utility.yul\":2892:3077   */\n    tag_51:\n        /* \"#utility.yul\":2932:2933   */\n      0x00\n        /* \"#utility.yul\":2949:2969   */\n      tag_109\n        /* \"#utility.yul\":2967:2968   */\n      dup3\n        /* \"#utility.yul\":2949:2969   */\n      tag_90\n      jump\t// in\n    tag_109:\n        /* \"#utility.yul\":2944:2969   */\n      swap2\n      pop\n        /* \"#utility.yul\":2983:3003   */\n      tag_110\n        /* \"#utility.yul\":3001:3002   */\n      dup4\n        /* \"#utility.yul\":2983:3003   */\n      tag_90\n      jump\t// in\n    tag_110:\n        /* \"#utility.yul\":2978:3003   */\n      swap3\n      pop\n        /* \"#utility.yul\":3022:3023   */\n      dup3\n        /* \"#utility.yul\":3012:3047   */\n      tag_111\n      jumpi\n        /* \"#utility.yul\":3027:3045   */\n      tag_112\n      tag_113\n      jump\t// in\n    tag_112:\n        /* \"#utility.yul\":3012:3047   */\n    tag_111:\n        /* \"#utility.yul\":3069:3070   */\n      dup3\n        /* \"#utility.yul\":3066:3067   */\n      dup3\n        /* \"#utility.yul\":3062:3071   */\n      div\n        /* \"#utility.yul\":3057:3071   */\n      swap1\n      pop\n        /* \"#utility.yul\":2892:3077   */\n      swap3\n      swap2\n      pop\n      pop\n      jump\t// out\n        /* \"#utility.yul\":3083:3179   */\n    tag_82:\n        /* \"#utility.yul\":3120:3127   */\n      0x00\n        /* \"#utility.yul\":3149:3173   */\n      tag_115\n        /* \"#utility.yul\":3167:3172   */\n      dup3\n        /* \"#utility.yul\":3149:3173   */\n      tag_116\n      jump\t// in\n    tag_115:\n        /* \"#utility.yul\":3138:3173   */\n      swap1\n      pop\n        /* \"#utility.yul\":3083:3179   */\n      swap2\n      swap1\n      pop\n      jump\t// out\n        /* \"#utility.yul\":3185:3311   */\n    tag_116:\n        /* \"#utility.yul\":3222:3229   */\n      0x00\n        /* \"#utility.yul\":3262:3304   */\n      0xffffffffffffffffffffffffffffffffffffffff\n        /* \"#utility.yul\":3255:3260   */\n      dup3\n        /* \"#utility.yul\":3251:3305   */\n      and\n        /* \"#utility.yul\":3240:3305   */\n      swap1\n      pop\n        /* \"#utility.yul\":3185:3311   */\n      swap2\n      swap1\n      pop\n      jump\t// out\n        /* \"#utility.yul\":3317:3394   */\n    tag_90:\n        /* \"#utility.yul\":3354:3361   */\n      0x00\n        /* \"#utility.yul\":3383:3388   */\n      dup2\n        /* \"#utility.yul\":3372:3388   */\n      swap1\n      pop\n        /* \"#utility.yul\":3317:3394   */\n      swap2\n      swap1\n      pop\n      jump\t// out\n        /* \"#utility.yul\":3400:3551   */\n    tag_86:\n        /* \"#utility.yul\":3475:3484   */\n      0x00\n        /* \"#utility.yul\":3508:3545   */\n      tag_120\n        /* \"#utility.yul\":3539:3544   */\n      dup3\n        /* \"#utility.yul\":3508:3545   */\n      tag_121\n      jump\t// in\n    tag_120:\n        /* \"#utility.yul\":3495:3545   */\n      swap1\n      pop\n        /* \"#utility.yul\":3400:3551   */\n      swap2\n      swap1\n      pop\n      jump\t// out\n        /* \"#utility.yul\":3557:3683   */\n    tag_121:\n        /* \"#utility.yul\":3607:3616   */\n      0x00\n        /* \"#utility.yul\":3640:3677   */\n      tag_123\n        /* \"#utility.yul\":3671:3676   */\n      dup3\n        /* \"#utility.yul\":3640:3677   */\n      tag_124\n      jump\t// in\n    tag_123:\n        /* \"#utility.yul\":3627:3677   */\n      swap1\n      pop\n        /* \"#utility.yul\":3557:3683   */\n      swap2\n      swap1\n      pop\n      jump\t// out\n        /* \"#utility.yul\":3689:3802   */\n    tag_124:\n        /* \"#utility.yul\":3739:3748   */\n      0x00\n        /* \"#utility.yul\":3772:3796   */\n      tag_126\n        /* \"#utility.yul\":3790:3795   */\n      dup3\n        /* \"#utility.yul\":3772:3796   */\n      tag_116\n      jump\t// in\n    tag_126:\n        /* \"#utility.yul\":3759:3796   */\n      swap1\n      pop\n        /* \"#utility.yul\":3689:3802   */\n      swap2\n      swap1\n      pop\n      jump\t// out\n        /* \"#utility.yul\":3808:4041   */\n    tag_36:\n        /* \"#utility.yul\":3847:3850   */\n      0x00\n        /* \"#utility.yul\":3870:3894   */\n      tag_128\n        /* \"#utility.yul\":3888:3893   */\n      dup3\n        /* \"#utility.yul\":3870:3894   */\n      tag_90\n      jump\t// in\n    tag_128:\n        /* \"#utility.yul\":3861:3894   */\n      swap2\n      pop\n        /* \"#utility.yul\":3916:3982   */\n      0xffffffffffffffffffffffffffffffffffffffffffffffffffffffffffffffff\n        /* \"#utility.yul\":3909:3914   */\n      dup3\n        /* \"#utility.yul\":3906:3983   */\n      eq\n        /* \"#utility.yul\":3903:4006   */\n      iszero\n      tag_129\n      jumpi\n        /* \"#utility.yul\":3986:4004   */\n      tag_130\n      tag_107\n      jump\t// in\n    tag_130:\n        /* \"#utility.yul\":3903:4006   */\n    tag_129:\n        /* \"#utility.yul\":4033:4034   */\n      0x01\n        /* \"#utility.yul\":4026:4031   */\n      dup3\n        /* \"#utility.yul\":4022:4035   */\n      add\n        /* \"#utility.yul\":4015:4035   */\n      swap1\n      pop\n        /* \"#utility.yul\":3808:4041   */\n      swap2\n      swap1\n      pop\n      jump\t// out\n        /* \"#utility.yul\":4047:4223   */\n    tag_45:\n        /* \"#utility.yul\":4079:4080   */\n      0x00\n        /* \"#utility.yul\":4096:4116   */\n      tag_132\n        /* \"#utility.yul\":4114:4115   */\n      dup3\n        /* \"#utility.yul\":4096:4116   */\n      tag_90\n      jump\t// in\n    tag_132:\n        /* \"#utility.yul\":4091:4116   */\n      swap2\n      pop\n        /* \"#utility.yul\":4130:4150   */\n      tag_133\n        /* \"#utility.yul\":4148:4149   */\n      dup4\n        /* \"#utility.yul\":4130:4150   */\n      tag_90\n      jump\t// in\n    tag_133:\n        /* \"#utility.yul\":4125:4150   */\n      swap3\n      pop\n        /* \"#utility.yul\":4169:4170   */\n      dup3\n        /* \"#utility.yul\":4159:4194   */\n      tag_134\n      jumpi\n        /* \"#utility.yul\":4174:4192   */\n      tag_135\n      tag_113\n      jump\t// in\n    tag_135:\n        /* \"#utility.yul\":4159:4194   */\n    tag_134:\n        /* \"#utility.yul\":4215:4216   */\n      dup3\n        /* \"#utility.yul\":4212:4213   */\n      dup3\n        /* \"#utility.yul\":4208:4217   */\n      mod\n        /* \"#utility.yul\":4203:4217   */\n      swap1\n      pop\n        /* \"#utility.yul\":4047:4223   */\n      swap3\n      swap2\n      pop\n      pop\n      jump\t// out\n        /* \"#utility.yul\":4229:4409   */\n    tag_107:\n        /* \"#utility.yul\":4277:4354   */\n      0x4e487b7100000000000000000000000000000000000000000000000000000000\n        /* \"#utility.yul\":4274:4275   */\n      0x00\n        /* \"#utility.yul\":4267:4355   */\n      mstore\n        /* \"#utility.yul\":4374:4378   */\n      0x11\n        /* \"#utility.yul\":4371:4372   */\n      0x04\n        /* \"#utility.yul\":4364:4379   */\n      mstore\n        /* \"#utility.yul\":4398:4402   */\n      0x24\n        /* \"#utility.yul\":4395:4396   */\n      0x00\n        /* \"#utility.yul\":4388:4403   */\n      revert\n        /* \"#utility.yul\":4415:4595   */\n    tag_113:\n        /* \"#utility.yul\":4463:4540   */\n      0x4e487b7100000000000000000000000000000000000000000000000000000000\n        /* \"#utility.yul\":4460:4461   */\n      0x00\n        /* \"#utility.yul\":4453:4541   */\n      mstore\n        /* \"#utility.yul\":4560:4564   */\n      0x12\n        /* \"#utility.yul\":4557:4558   */\n      0x04\n        /* \"#utility.yul\":4550:4565   */\n      mstore\n        /* \"#utility.yul\":4584:4588   */\n      0x24\n        /* \"#utility.yul\":4581:4582   */\n      0x00\n        /* \"#utility.yul\":4574:4589   */\n      revert\n        /* \"#utility.yul\":4724:4841   */\n    tag_73:\n        /* \"#utility.yul\":4833:4834   */\n      0x00\n        /* \"#utility.yul\":4830:4831   */\n      dup1\n        /* \"#utility.yul\":4823:4835   */\n      revert\n        /* \"#utility.yul\":4847:4969   */\n    tag_65:\n        /* \"#utility.yul\":4920:4944   */\n      tag_142\n        /* \"#utility.yul\":4938:4943   */\n      dup2\n        /* \"#utility.yul\":4920:4944   */\n      tag_82\n      jump\t// in\n    tag_142:\n        /* \"#utility.yul\":4913:4918   */\n      dup2\n        /* \"#utility.yul\":4910:4945   */\n      eq\n        /* \"#utility.yul\":4900:4963   */\n      tag_143\n      jumpi\n        /* \"#utility.yul\":4959:4960   */\n      0x00\n        /* \"#utility.yul\":4956:4957   */\n      dup1\n        /* \"#utility.yul\":4949:4961   */\n      revert\n        /* \"#utility.yul\":4900:4963   */\n    tag_143:\n        /* \"#utility.yul\":4847:4969   */\n      pop\n      jump\t// out\n        /* \"#utility.yul\":4975:5097   */\n    tag_69:\n        /* \"#utility.yul\":5048:5072   */\n      tag_145\n        /* \"#utility.yul\":5066:5071   */\n      dup2\n        /* \"#utility.yul\":5048:5072   */\n      tag_90\n      jump\t// in\n    tag_145:\n        /* \"#utility.yul\":5041:5046   */\n      dup2\n        /* \"#utility.yul\":5038:5073   */\n      eq\n        /* \"#utility.yul\":5028:5091   */\n      tag_146\n      jumpi\n        /* \"#utility.yul\":5087:5088   */\n      0x00\n        /* \"#utility.yul\":5084:5085   */\n      dup1\n        /* \"#utility.yul\":5077:5089   */\n      revert\n        /* \"#utility.yul\":5028:5091   */\n    tag_146:\n        /* \"#utility.yul\":4975:5097   */\n      pop\n      jump\t// out\n\n    auxdata: 0xa2646970667358221220227fe966505ebd59ccd4b88b1d76fb0b2489851cabf6ef3d2e4efdb667e9998e64736f6c63430008070033\n}\n",
				"bytecode": {
					"linkReferences": {},
					"object": "608060405234801561001057600080fd5b506040516107bb3803806107bb8339818101604052810190610032919061008d565b806000806101000a81548173ffffffffffffffffffffffffffffffffffffffff021916908373ffffffffffffffffffffffffffffffffffffffff1602179055505061011a565b60008151905061008781610103565b92915050565b6000602082840312156100a3576100a26100fe565b5b60006100b184828501610078565b91505092915050565b60006100c5826100de565b9050919050565b60006100d7826100ba565b9050919050565b600073ffffffffffffffffffffffffffffffffffffffff82169050919050565b600080fd5b61010c816100cc565b811461011757600080fd5b50565b610692806101296000396000f3fe608060405234801561001057600080fd5b50600436106100365760003560e01c806337c575931461003b578063caa093b71461006b575b600080fd5b61005560048036038101906100509190610357565b610089565b604051610062919061043d565b60405180910390f35b610073610233565b6040516100809190610422565b60405180910390f35b60008060008054906101000a900473ffffffffffffffffffffffffffffffffffffffff1673ffffffffffffffffffffffffffffffffffffffff166370a08231846040518263ffffffff1660e01b81526004016100e591906103de565b60206040518083038186803b1580156100fd57600080fd5b505afa158015610111573d6000803e3d6000fd5b505050506040513d601f19601f820116820180604052508101906101359190610384565b9050600080600090505b828110156102285760008060009054906101000a900473ffffffffffffffffffffffffffffffffffffffff1673ffffffffffffffffffffffffffffffffffffffff16632f745c5987846040518363ffffffff1660e01b81526004016101a59291906103f9565b60206040518083038186803b1580156101bd57600080fd5b505afa1580156101d1573d6000803e3d6000fd5b505050506040513d601f19601f820116820180604052508101906101f59190610384565b905061020081610257565b1561021457828061021090610551565b9350505b50808061022090610551565b91505061013f565b508092505050919050565b60008054906101000a900473ffffffffffffffffffffffffffffffffffffffff1681565b600080610263836102b3565b90506000600290505b8181116102a55760008185610281919061059a565b1415610292576000925050506102ae565b808061029d90610551565b91505061026c565b50600183119150505b919050565b6000600382111561031a57819050600060016002846102d291906104ae565b6102dc9190610458565b90505b818110156103145780915060028182856102f991906104ae565b6103039190610458565b61030d91906104ae565b90506102df565b50610328565b6000821461032757600190505b5b919050565b60008135905061033c8161062e565b92915050565b60008151905061035181610645565b92915050565b60006020828403121561036d5761036c610629565b5b600061037b8482850161032d565b91505092915050565b60006020828403121561039a57610399610629565b5b60006103a884828501610342565b91505092915050565b6103ba816104df565b82525050565b6103c98161051b565b82525050565b6103d881610511565b82525050565b60006020820190506103f360008301846103b1565b92915050565b600060408201905061040e60008301856103b1565b61041b60208301846103cf565b9392505050565b600060208201905061043760008301846103c0565b92915050565b600060208201905061045260008301846103cf565b92915050565b600061046382610511565b915061046e83610511565b9250827fffffffffffffffffffffffffffffffffffffffffffffffffffffffffffffffff038211156104a3576104a26105cb565b5b828201905092915050565b60006104b982610511565b91506104c483610511565b9250826104d4576104d36105fa565b5b828204905092915050565b60006104ea826104f1565b9050919050565b600073ffffffffffffffffffffffffffffffffffffffff82169050919050565b6000819050919050565b60006105268261052d565b9050919050565b60006105388261053f565b9050919050565b600061054a826104f1565b9050919050565b600061055c82610511565b91507fffffffffffffffffffffffffffffffffffffffffffffffffffffffffffffffff82141561058f5761058e6105cb565b5b600182019050919050565b60006105a582610511565b91506105b083610511565b9250826105c0576105bf6105fa565b5b828206905092915050565b7f4e487b7100000000000000000000000000000000000000000000000000000000600052601160045260246000fd5b7f4e487b7100000000000000000000000000000000000000000000000000000000600052601260045260246000fd5b600080fd5b610637816104df565b811461064257600080fd5b50565b61064e81610511565b811461065957600080fd5b5056fea2646970667358221220227fe966505ebd59ccd4b88b1d76fb0b2489851cabf6ef3d2e4efdb667e9998e64736f6c63430008070033",
					"opcodes": "PUSH1 0x80 PUSH1 0x40 MSTORE CALLVALUE DUP1 ISZERO PUSH2 0x10 JUMPI PUSH1 0x0 DUP1 REVERT JUMPDEST POP PUSH1 0x40 MLOAD PUSH2 0x7BB CODESIZE SUB DUP1 PUSH2 0x7BB DUP4 CODECOPY DUP2 DUP2 ADD PUSH1 0x40 MSTORE DUP2 ADD SWAP1 PUSH2 0x32 SWAP2 SWAP1 PUSH2 0x8D JUMP JUMPDEST DUP1 PUSH1 0x0 DUP1 PUSH2 0x100 EXP DUP2 SLOAD DUP2 PUSH20 0xFFFFFFFFFFFFFFFFFFFFFFFFFFFFFFFFFFFFFFFF MUL NOT AND SWAP1 DUP4 PUSH20 0xFFFFFFFFFFFFFFFFFFFFFFFFFFFFFFFFFFFFFFFF AND MUL OR SWAP1 SSTORE POP POP PUSH2 0x11A JUMP JUMPDEST PUSH1 0x0 DUP2 MLOAD SWAP1 POP PUSH2 0x87 DUP2 PUSH2 0x103 JUMP JUMPDEST SWAP3 SWAP2 POP POP JUMP JUMPDEST PUSH1 0x0 PUSH1 0x20 DUP3 DUP5 SUB SLT ISZERO PUSH2 0xA3 JUMPI PUSH2 0xA2 PUSH2 0xFE JUMP JUMPDEST JUMPDEST PUSH1 0x0 PUSH2 0xB1 DUP5 DUP3 DUP6 ADD PUSH2 0x78 JUMP JUMPDEST SWAP2 POP POP SWAP3 SWAP2 POP POP JUMP JUMPDEST PUSH1 0x0 PUSH2 0xC5 DUP3 PUSH2 0xDE JUMP JUMPDEST SWAP1 POP SWAP2 SWAP1 POP JUMP JUMPDEST PUSH1 0x0 PUSH2 0xD7 DUP3 PUSH2 0xBA JUMP JUMPDEST SWAP1 POP SWAP2 SWAP1 POP JUMP JUMPDEST PUSH1 0x0 PUSH20 0xFFFFFFFFFFFFFFFFFFFFFFFFFFFFFFFFFFFFFFFF DUP3 AND SWAP1 POP SWAP2 SWAP1 POP JUMP JUMPDEST PUSH1 0x0 DUP1 REVERT JUMPDEST PUSH2 0x10C DUP2 PUSH2 0xCC JUMP JUMPDEST DUP2 EQ PUSH2 0x117 JUMPI PUSH1 0x0 DUP1 REVERT JUMPDEST POP JUMP JUMPDEST PUSH2 0x692 DUP1 PUSH2 0x129 PUSH1 0x0 CODECOPY PUSH1 0x0 RETURN INVALID PUSH1 0x80 PUSH1 0x40 MSTORE CALLVALUE DUP1 ISZERO PUSH2 0x10 JUMPI PUSH1 0x0 DUP1 REVERT JUMPDEST POP PUSH1 0x4 CALLDATASIZE LT PUSH2 0x36 JUMPI PUSH1 0x0 CALLDATALOAD PUSH1 0xE0 SHR DUP1 PUSH4 0x37C57593 EQ PUSH2 0x3B JUMPI DUP1 PUSH4 0xCAA093B7 EQ PUSH2 0x6B JUMPI JUMPDEST PUSH1 0x0 DUP1 REVERT JUMPDEST PUSH2 0x55 PUSH1 0x4 DUP1 CALLDATASIZE SUB DUP2 ADD SWAP1 PUSH2 0x50 SWAP2 SWAP1 PUSH2 0x357 JUMP JUMPDEST PUSH2 0x89 JUMP JUMPDEST PUSH1 0x40 MLOAD PUSH2 0x62 SWAP2 SWAP1 PUSH2 0x43D JUMP JUMPDEST PUSH1 0x40 MLOAD DUP1 SWAP2 SUB SWAP1 RETURN JUMPDEST PUSH2 0x73 PUSH2 0x233 JUMP JUMPDEST PUSH1 0x40 MLOAD PUSH2 0x80 SWAP2 SWAP1 PUSH2 0x422 JUMP JUMPDEST PUSH1 0x40 MLOAD DUP1 SWAP2 SUB SWAP1 RETURN JUMPDEST PUSH1 0x0 DUP1 PUSH1 0x0 DUP1 SLOAD SWAP1 PUSH2 0x100 EXP SWAP1 DIV PUSH20 0xFFFFFFFFFFFFFFFFFFFFFFFFFFFFFFFFFFFFFFFF AND PUSH20 0xFFFFFFFFFFFFFFFFFFFFFFFFFFFFFFFFFFFFFFFF AND PUSH4 0x70A08231 DUP5 PUSH1 0x40 MLOAD DUP3 PUSH4 0xFFFFFFFF AND PUSH1 0xE0 SHL DUP2 MSTORE PUSH1 0x4 ADD PUSH2 0xE5 SWAP2 SWAP1 PUSH2 0x3DE JUMP JUMPDEST PUSH1 0x20 PUSH1 0x40 MLOAD DUP1 DUP4 SUB DUP2 DUP7 DUP1 EXTCODESIZE ISZERO DUP1 ISZERO PUSH2 0xFD JUMPI PUSH1 0x0 DUP1 REVERT JUMPDEST POP GAS STATICCALL ISZERO DUP1 ISZERO PUSH2 0x111 JUMPI RETURNDATASIZE PUSH1 0x0 DUP1 RETURNDATACOPY RETURNDATASIZE PUSH1 0x0 REVERT JUMPDEST POP POP POP POP PUSH1 0x40 MLOAD RETURNDATASIZE PUSH1 0x1F NOT PUSH1 0x1F DUP3 ADD AND DUP3 ADD DUP1 PUSH1 0x40 MSTORE POP DUP2 ADD SWAP1 PUSH2 0x135 SWAP2 SWAP1 PUSH2 0x384 JUMP JUMPDEST SWAP1 POP PUSH1 0x0 DUP1 PUSH1 0x0 SWAP1 POP JUMPDEST DUP3 DUP2 LT ISZERO PUSH2 0x228 JUMPI PUSH1 0x0 DUP1 PUSH1 0x0 SWAP1 SLOAD SWAP1 PUSH2 0x100 EXP SWAP1 DIV PUSH20 0xFFFFFFFFFFFFFFFFFFFFFFFFFFFFFFFFFFFFFFFF AND PUSH20 0xFFFFFFFFFFFFFFFFFFFFFFFFFFFFFFFFFFFFFFFF AND PUSH4 0x2F745C59 DUP8 DUP5 PUSH1 0x40 MLOAD DUP4 PUSH4 0xFFFFFFFF AND PUSH1 0xE0 SHL DUP2 MSTORE PUSH1 0x4 ADD PUSH2 0x1A5 SWAP3 SWAP2 SWAP1 PUSH2 0x3F9 JUMP JUMPDEST PUSH1 0x20 PUSH1 0x40 MLOAD DUP1 DUP4 SUB DUP2 DUP7 DUP1 EXTCODESIZE ISZERO DUP1 ISZERO PUSH2 0x1BD JUMPI PUSH1 0x0 DUP1 REVERT JUMPDEST POP GAS STATICCALL ISZERO DUP1 ISZERO PUSH2 0x1D1 JUMPI RETURNDATASIZE PUSH1 0x0 DUP1 RETURNDATACOPY RETURNDATASIZE PUSH1 0x0 REVERT JUMPDEST POP POP POP POP PUSH1 0x40 MLOAD RETURNDATASIZE PUSH1 0x1F NOT PUSH1 0x1F DUP3 ADD AND DUP3 ADD DUP1 PUSH1 0x40 MSTORE POP DUP2 ADD SWAP1 PUSH2 0x1F5 SWAP2 SWAP1 PUSH2 0x384 JUMP JUMPDEST SWAP1 POP PUSH2 0x200 DUP2 PUSH2 0x257 JUMP JUMPDEST ISZERO PUSH2 0x214 JUMPI DUP3 DUP1 PUSH2 0x210 SWAP1 PUSH2 0x551 JUMP JUMPDEST SWAP4 POP POP JUMPDEST POP DUP1 DUP1 PUSH2 0x220 SWAP1 PUSH2 0x551 JUMP JUMPDEST SWAP2 POP POP PUSH2 0x13F JUMP JUMPDEST POP DUP1 SWAP3 POP POP POP SWAP2 SWAP1 POP JUMP JUMPDEST PUSH1 0x0 DUP1 SLOAD SWAP1 PUSH2 0x100 EXP SWAP1 DIV PUSH20 0xFFFFFFFFFFFFFFFFFFFFFFFFFFFFFFFFFFFFFFFF AND DUP2 JUMP JUMPDEST PUSH1 0x0 DUP1 PUSH2 0x263 DUP4 PUSH2 0x2B3 JUMP JUMPDEST SWAP1 POP PUSH1 0x0 PUSH1 0x2 SWAP1 POP JUMPDEST DUP2 DUP2 GT PUSH2 0x2A5 JUMPI PUSH1 0x0 DUP2 DUP6 PUSH2 0x281 SWAP2 SWAP1 PUSH2 0x59A JUMP JUMPDEST EQ ISZERO PUSH2 0x292 JUMPI PUSH1 0x0 SWAP3 POP POP POP PUSH2 0x2AE JUMP JUMPDEST DUP1 DUP1 PUSH2 0x29D SWAP1 PUSH2 0x551 JUMP JUMPDEST SWAP2 POP POP PUSH2 0x26C JUMP JUMPDEST POP PUSH1 0x1 DUP4 GT SWAP2 POP POP JUMPDEST SWAP2 SWAP1 POP JUMP JUMPDEST PUSH1 0x0 PUSH1 0x3 DUP3 GT ISZERO PUSH2 0x31A JUMPI DUP2 SWAP1 POP PUSH1 0x0 PUSH1 0x1 PUSH1 0x2 DUP5 PUSH2 0x2D2 SWAP2 SWAP1 PUSH2 0x4AE JUMP JUMPDEST PUSH2 0x2DC SWAP2 SWAP1 PUSH2 0x458 JUMP JUMPDEST SWAP1 POP JUMPDEST DUP2 DUP2 LT ISZERO PUSH2 0x314 JUMPI DUP1 SWAP2 POP PUSH1 0x2 DUP2 DUP3 DUP6 PUSH2 0x2F9 SWAP2 SWAP1 PUSH2 0x4AE JUMP JUMPDEST PUSH2 0x303 SWAP2 SWAP1 PUSH2 0x458 JUMP JUMPDEST PUSH2 0x30D SWAP2 SWAP1 PUSH2 0x4AE JUMP JUMPDEST SWAP1 POP PUSH2 0x2DF JUMP JUMPDEST POP PUSH2 0x328 JUMP JUMPDEST PUSH1 0x0 DUP3 EQ PUSH2 0x327 JUMPI PUSH1 0x1 SWAP1 POP JUMPDEST JUMPDEST SWAP2 SWAP1 POP JUMP JUMPDEST PUSH1 0x0 DUP2 CALLDATALOAD SWAP1 POP PUSH2 0x33C DUP2 PUSH2 0x62E JUMP JUMPDEST SWAP3 SWAP2 POP POP JUMP JUMPDEST PUSH1 0x0 DUP2 MLOAD SWAP1 POP PUSH2 0x351 DUP2 PUSH2 0x645 JUMP JUMPDEST SWAP3 SWAP2 POP POP JUMP JUMPDEST PUSH1 0x0 PUSH1 0x20 DUP3 DUP5 SUB SLT ISZERO PUSH2 0x36D JUMPI PUSH2 0x36C PUSH2 0x629 JUMP JUMPDEST JUMPDEST PUSH1 0x0 PUSH2 0x37B DUP5 DUP3 DUP6 ADD PUSH2 0x32D JUMP JUMPDEST SWAP2 POP POP SWAP3 SWAP2 POP POP JUMP JUMPDEST PUSH1 0x0 PUSH1 0x20 DUP3 DUP5 SUB SLT ISZERO PUSH2 0x39A JUMPI PUSH2 0x399 PUSH2 0x629 JUMP JUMPDEST JUMPDEST PUSH1 0x0 PUSH2 0x3A8 DUP5 DUP3 DUP6 ADD PUSH2 0x342 JUMP JUMPDEST SWAP2 POP POP SWAP3 SWAP2 POP POP JUMP JUMPDEST PUSH2 0x3BA DUP2 PUSH2 0x4DF JUMP JUMPDEST DUP3 MSTORE POP POP JUMP JUMPDEST PUSH2 0x3C9 DUP2 PUSH2 0x51B JUMP JUMPDEST DUP3 MSTORE POP POP JUMP JUMPDEST PUSH2 0x3D8 DUP2 PUSH2 0x511 JUMP JUMPDEST DUP3 MSTORE POP POP JUMP JUMPDEST PUSH1 0x0 PUSH1 0x20 DUP3 ADD SWAP1 POP PUSH2 0x3F3 PUSH1 0x0 DUP4 ADD DUP5 PUSH2 0x3B1 JUMP JUMPDEST SWAP3 SWAP2 POP POP JUMP JUMPDEST PUSH1 0x0 PUSH1 0x40 DUP3 ADD SWAP1 POP PUSH2 0x40E PUSH1 0x0 DUP4 ADD DUP6 PUSH2 0x3B1 JUMP JUMPDEST PUSH2 0x41B PUSH1 0x20 DUP4 ADD DUP5 PUSH2 0x3CF JUMP JUMPDEST SWAP4 SWAP3 POP POP POP JUMP JUMPDEST PUSH1 0x0 PUSH1 0x20 DUP3 ADD SWAP1 POP PUSH2 0x437 PUSH1 0x0 DUP4 ADD DUP5 PUSH2 0x3C0 JUMP JUMPDEST SWAP3 SWAP2 POP POP JUMP JUMPDEST PUSH1 0x0 PUSH1 0x20 DUP3 ADD SWAP1 POP PUSH2 0x452 PUSH1 0x0 DUP4 ADD DUP5 PUSH2 0x3CF JUMP JUMPDEST SWAP3 SWAP2 POP POP JUMP JUMPDEST PUSH1 0x0 PUSH2 0x463 DUP3 PUSH2 0x511 JUMP JUMPDEST SWAP2 POP PUSH2 0x46E DUP4 PUSH2 0x511 JUMP JUMPDEST SWAP3 POP DUP3 PUSH32 0xFFFFFFFFFFFFFFFFFFFFFFFFFFFFFFFFFFFFFFFFFFFFFFFFFFFFFFFFFFFFFFFF SUB DUP3 GT ISZERO PUSH2 0x4A3 JUMPI PUSH2 0x4A2 PUSH2 0x5CB JUMP JUMPDEST JUMPDEST DUP3 DUP3 ADD SWAP1 POP SWAP3 SWAP2 POP POP JUMP JUMPDEST PUSH1 0x0 PUSH2 0x4B9 DUP3 PUSH2 0x511 JUMP JUMPDEST SWAP2 POP PUSH2 0x4C4 DUP4 PUSH2 0x511 JUMP JUMPDEST SWAP3 POP DUP3 PUSH2 0x4D4 JUMPI PUSH2 0x4D3 PUSH2 0x5FA JUMP JUMPDEST JUMPDEST DUP3 DUP3 DIV SWAP1 POP SWAP3 SWAP2 POP POP JUMP JUMPDEST PUSH1 0x0 PUSH2 0x4EA DUP3 PUSH2 0x4F1 JUMP JUMPDEST SWAP1 POP SWAP2 SWAP1 POP JUMP JUMPDEST PUSH1 0x0 PUSH20 0xFFFFFFFFFFFFFFFFFFFFFFFFFFFFFFFFFFFFFFFF DUP3 AND SWAP1 POP SWAP2 SWAP1 POP JUMP JUMPDEST PUSH1 0x0 DUP2 SWAP1 POP SWAP2 SWAP1 POP JUMP JUMPDEST PUSH1 0x0 PUSH2 0x526 DUP3 PUSH2 0x52D JUMP JUMPDEST SWAP1 POP SWAP2 SWAP1 POP JUMP JUMPDEST PUSH1 0x0 PUSH2 0x538 DUP3 PUSH2 0x53F JUMP JUMPDEST SWAP1 POP SWAP2 SWAP1 POP JUMP JUMPDEST PUSH1 0x0 PUSH2 0x54A DUP3 PUSH2 0x4F1 JUMP JUMPDEST SWAP1 POP SWAP2 SWAP1 POP JUMP JUMPDEST PUSH1 0x0 PUSH2 0x55C DUP3 PUSH2 0x511 JUMP JUMPDEST SWAP2 POP PUSH32 0xFFFFFFFFFFFFFFFFFFFFFFFFFFFFFFFFFFFFFFFFFFFFFFFFFFFFFFFFFFFFFFFF DUP3 EQ ISZERO PUSH2 0x58F JUMPI PUSH2 0x58E PUSH2 0x5CB JUMP JUMPDEST JUMPDEST PUSH1 0x1 DUP3 ADD SWAP1 POP SWAP2 SWAP1 POP JUMP JUMPDEST PUSH1 0x0 PUSH2 0x5A5 DUP3 PUSH2 0x511 JUMP JUMPDEST SWAP2 POP PUSH2 0x5B0 DUP4 PUSH2 0x511 JUMP JUMPDEST SWAP3 POP DUP3 PUSH2 0x5C0 JUMPI PUSH2 0x5BF PUSH2 0x5FA JUMP JUMPDEST JUMPDEST DUP3 DUP3 MOD SWAP1 POP SWAP3 SWAP2 POP POP JUMP JUMPDEST PUSH32 0x4E487B7100000000000000000000000000000000000000000000000000000000 PUSH1 0x0 MSTORE PUSH1 0x11 PUSH1 0x4 MSTORE PUSH1 0x24 PUSH1 0x0 REVERT JUMPDEST PUSH32 0x4E487B7100000000000000000000000000000000000000000000000000000000 PUSH1 0x0 MSTORE PUSH1 0x12 PUSH1 0x4 MSTORE PUSH1 0x24 PUSH1 0x0 REVERT JUMPDEST PUSH1 0x0 DUP1 REVERT JUMPDEST PUSH2 0x637 DUP2 PUSH2 0x4DF JUMP JUMPDEST DUP2 EQ PUSH2 0x642 JUMPI PUSH1 0x0 DUP1 REVERT JUMPDEST POP JUMP JUMPDEST PUSH2 0x64E DUP2 PUSH2 0x511 JUMP JUMPDEST DUP2 EQ PUSH2 0x659 JUMPI PUSH1 0x0 DUP1 REVERT JUMPDEST POP JUMP INVALID LOG2 PUSH5 0x6970667358 0x22 SLT KECCAK256 0x22 PUSH32 0xE966505EBD59CCD4B88B1D76FB0B2489851CABF6EF3D2E4EFDB667E9998E6473 PUSH16 0x6C634300080700330000000000000000 "
				},
				"gasEstimates": {
					"creation": {
						"codeDepositCost": "336400",
						"executionCost": "infinite",
						"totalCost": "infinite"
					},
					"external": {
						"myNFTContract()": "2597",
						"specialNftsCount(address)": "infinite"
					},
					"internal": {
						"isPrime(uint256)": "infinite",
						"sqrt(uint256)": "infinite"
					}
				},
				"methodIdentifiers": {
					"myNFTContract()": "caa093b7",
					"specialNftsCount(address)": "37c57593"
				}
			},
			"storageLayout": {
				"storage": [
					{
						"astId": 164,
						"contract": "contracts/2_SpecialNfts.sol:SpecialNfts",
						"label": "myNFTContract",
						"offset": 0,
						"slot": "0",
						"type": "t_contract(IERC721Enumerable)146"
					}
				],
				"types": {
					"t_contract(IERC721Enumerable)146": {
						"encoding": "inplace",
						"label": "contract IERC721Enumerable",
						"numberOfBytes": "20"
					}
				}
			},
			"userdoc": {
				"kind": "user",
				"methods": {},
				"version": 1
			}
		}
	}
}